{
  "_format": "hh-sol-artifact-1",
  "contractName": "HomeChainContract",
  "sourceName": "contracts/HomeChainContract.sol",
  "abi": [
    {
      "inputs": [
        {
          "internalType": "string",
          "name": "_title",
          "type": "string"
        },
        {
          "internalType": "string",
          "name": "_description",
          "type": "string"
        },
        {
          "internalType": "uint256",
          "name": "_limit",
          "type": "uint256"
        },
        {
          "internalType": "uint256",
          "name": "_percent",
          "type": "uint256"
        },
        {
          "internalType": "uint256",
          "name": "_price",
          "type": "uint256"
        }
      ],
      "stateMutability": "nonpayable",
      "type": "constructor"
    },
    {
      "anonymous": false,
      "inputs": [
        {
          "indexed": true,
          "internalType": "bytes32",
          "name": "id",
          "type": "bytes32"
        }
      ],
      "name": "ChainlinkCancelled",
      "type": "event"
    },
    {
      "anonymous": false,
      "inputs": [
        {
          "indexed": true,
          "internalType": "bytes32",
          "name": "id",
          "type": "bytes32"
        }
      ],
      "name": "ChainlinkFulfilled",
      "type": "event"
    },
    {
      "anonymous": false,
      "inputs": [
        {
          "indexed": true,
          "internalType": "bytes32",
          "name": "id",
          "type": "bytes32"
        }
      ],
      "name": "ChainlinkRequested",
      "type": "event"
    },
    {
      "inputs": [],
      "name": "estimate",
      "outputs": [
        {
          "internalType": "uint256",
          "name": "",
          "type": "uint256"
        }
      ],
      "stateMutability": "view",
      "type": "function"
    },
    {
      "inputs": [
        {
          "internalType": "bytes32",
          "name": "_requestId",
          "type": "bytes32"
        },
        {
          "internalType": "uint256",
          "name": "_estimate",
          "type": "uint256"
        }
      ],
      "name": "fulfill",
      "outputs": [],
      "stateMutability": "nonpayable",
      "type": "function"
    },
    {
      "inputs": [
        {
          "internalType": "address",
          "name": "",
          "type": "address"
        }
      ],
      "name": "participants",
      "outputs": [
        {
          "internalType": "uint256",
          "name": "",
          "type": "uint256"
        }
      ],
      "stateMutability": "view",
      "type": "function"
    },
    {
      "inputs": [],
      "name": "purchaseStake",
      "outputs": [],
      "stateMutability": "payable",
      "type": "function"
    },
    {
      "inputs": [],
      "name": "requestEstimateData",
      "outputs": [
        {
          "internalType": "bytes32",
          "name": "requestId",
          "type": "bytes32"
        }
      ],
      "stateMutability": "nonpayable",
      "type": "function"
    }
  ],
  "bytecode": "0x600160045560a0604081905260006080819052620000209160069162000122565b50604080516020810191829052600090819052620000419160079162000122565b503480156200004f57600080fd5b50604051620012223803806200122283398101604081905262000072916200027b565b600880546001600160a01b0319163317905584516200009990600690602088019062000122565b508351620000af90600790602087019062000122565b50600992909255600b91909155600a5550506000601055600c80546001600160a01b03191673c57b33452b4f7bb189bb5afae9cc4aba1f7a4fd81790557f6435323730643163333131393431643062303862656164323166656137373437600d5567016345785d8a0000600e5562000350565b8280546200013090620002fd565b90600052602060002090601f0160209004810192826200015457600085556200019f565b82601f106200016f57805160ff19168380011785556200019f565b828001600101855582156200019f579182015b828111156200019f57825182559160200191906001019062000182565b50620001ad929150620001b1565b5090565b5b80821115620001ad5760008155600101620001b2565b600082601f830112620001d9578081fd5b81516001600160401b0380821115620001f657620001f66200033a565b604051601f8301601f19908116603f011681019082821181831017156200022157620002216200033a565b816040528381526020925086838588010111156200023d578485fd5b8491505b8382101562000260578582018301518183018401529082019062000241565b838211156200027157848385830101525b9695505050505050565b600080600080600060a0868803121562000293578081fd5b85516001600160401b0380821115620002aa578283fd5b620002b889838a01620001c8565b96506020880151915080821115620002ce578283fd5b50620002dd88828901620001c8565b60408801516060890151608090990151979a919950979695509350505050565b600181811c908216806200031257607f821691505b602082108114156200033457634e487b7160e01b600052602260045260246000fd5b50919050565b634e487b7160e01b600052604160045260246000fd5b610ec280620003606000396000f3fe60806040526004361061004a5760003560e01c806309e69ede1461004f57806318c0e04f1461008e5780633592d016146100985780634357855e146100ae5780636b8c511f146100ce575b600080fd5b34801561005b57600080fd5b5061007c61006a366004610b53565b60116020526000908152604090205481565b60405190815260200160405180910390f35b6100966100e3565b005b3480156100a457600080fd5b5061007c600f5481565b3480156100ba57600080fd5b506100966100c9366004610b9a565b6101da565b3480156100da57600080fd5b5061007c61029d565b600b5434146101495760405162461bcd60e51b815260206004820152602760248201527f506c656173652073656e6420636f727265637420616d6f756e7420746f20636f604482015266373a3930b1ba1760c91b60648201526084015b60405180910390fd5b600954601054106101ad5760405162461bcd60e51b815260206004820152602860248201527f5468697320636f6e7472616374206973206f766572737562736372696265642060448201526737b910333ab6361760c11b6064820152608401610140565b6001601060008282546101c09190610c95565b909155505033600090815260116020526040902060019055565b60008281526005602052604090205482906001600160a01b031633146102535760405162461bcd60e51b815260206004820152602860248201527f536f75726365206d75737420626520746865206f7261636c65206f6620746865604482015267081c995c5d595cdd60c21b6064820152608401610140565b60008181526005602052604080822080546001600160a01b03191690555182917f7cc135e0cebb02c3480ae5d74d377283180a2601f8f644edf7987b009316c63a91a250600f5550565b6000806102b4600d5430634357855e60e01b6103b0565b90506102f66040518060400160405280600381526020016219d95d60ea1b815250604051806080016040528060498152602001610e44604991398391906103d5565b61035c604051806040016040528060048152602001630e0c2e8d60e31b8152506040518060400160405280601881526020017f5241572e4554482e5553442e564f4c554d453234484f55520000000000000000815250836103d59092919063ffffffff16565b60408051808201909152600581526474696d657360d81b6020820152670de0b6b3a76400009061038e908390836103f8565b600c54600e546103a9916001600160a01b0316908490610416565b9250505090565b6103b8610b18565b6103c0610b18565b6103cc81868686610435565b95945050505050565b60808301516103e49083610472565b60808301516103f39082610472565b505050565b60808301516104079083610472565b60808301516103f39082610489565b600061042d84848460016320214ca360e11b6104ed565b949350505050565b61043d610b18565b61044d85608001516101006106f9565b50509183526001600160a01b031660208301526001600160e01b031916604082015290565b61047f8260038351610764565b6103f38282610838565b67ffffffffffffffff198112156104a8576104a48282610866565b5050565b67ffffffffffffffff8113156104c2576104a482826108a8565b600081126104d6576104a482600083610764565b6104a48260016104e884600019610db7565b610764565b6004546040516bffffffffffffffffffffffff193060601b166020820152603481019190915260009060540160408051808303601f19018152918152815160209283012060045460608901526000818152600590935281832080546001600160a01b0319166001600160a01b038b16179055905190925082917fb5e6e01e79f91267dc17b4e6314d5d4d03593d2ceee0fbb452b750bd70ea5af991a2600082600080886000015189602001518a604001518b606001518a8d60800151600001516040516024016105c4989796959493929190610c06565b60408051601f198184030181529181526020820180516001600160e01b03166001600160e01b0319909416939093179092526002549151630200057560e51b81529092506001600160a01b0390911690634000aea09061062c908a9089908690600401610c6e565b602060405180830381600087803b15801561064657600080fd5b505af115801561065a573d6000803e3d6000fd5b505050506040513d601f19601f8201168201806040525081019061067e9190610b7a565b6106d65760405162461bcd60e51b815260206004820152602360248201527f756e61626c6520746f207472616e73666572416e6443616c6c20746f206f7261604482015262636c6560e81b6064820152608401610140565b6001600460008282546106e99190610c95565b9091555091979650505050505050565b604080518082019091526060815260006020820152610719602083610e0d565b1561074157610729602083610e0d565b610734906020610df6565b61073e9083610c95565b91505b506020808301829052604080518085526000815283019091019052815b92915050565b601781116107855761077f8360e0600585901b1683176108cb565b50505050565b60ff81116107af576107a2836018611fe0600586901b16176108cb565b5061077f838260016108f0565b61ffff81116107da576107cd836019611fe0600586901b16176108cb565b5061077f838260026108f0565b63ffffffff8111610807576107fa83601a611fe0600586901b16176108cb565b5061077f838260046108f0565b67ffffffffffffffff81116103f35761082b83601b611fe0600586901b16176108cb565b5061077f838260086108f0565b60408051808201909152606081526000602082015261085f83846000015151848551610916565b9392505050565b6108718260c36108cb565b506104a48261088283600019610db7565b60405160200161089491815260200190565b604051602081830303815290604052610a00565b6108b38260c26108cb565b506104a4828260405160200161089491815260200190565b60408051808201909152606081526000602082015261085f8384600001515184610a0d565b60408051808201909152606081526000602082015261042d848560000151518585610a69565b604080518082019091526060815260006020820152825182111561093957600080fd5b60208501516109488386610c95565b111561097b5761097b8561096b876020015187866109669190610c95565b610aea565b610976906002610d98565b610b01565b60008086518051876020830101935080888701111561099a5787860182525b505050602084015b602084106109da57805182526109b9602083610c95565b91506109c6602082610c95565b90506109d3602085610df6565b93506109a2565b51815160001960208690036101000a019081169019919091161790525083949350505050565b61047f8260028351610764565b60408051808201909152606081526000602082015283602001518310610a4257610a4284856020015160026109769190610d98565b835180516020858301018481535080851415610a5f576001810182525b5093949350505050565b6040805180820190915260608152600060208201526020850151610a8d8584610c95565b1115610aa157610aa18561096b8685610c95565b60006001610ab184610100610cf0565b610abb9190610df6565b9050855183868201018583198251161781525080518487011115610adf5783860181525b509495945050505050565b600081831115610afb57508161075e565b50919050565b8151610b0d83836106f9565b5061077f8382610838565b6040805160a0810182526000808252602080830182905282840182905260608084018390528451808601909552845283015290608082015290565b600060208284031215610b64578081fd5b81356001600160a01b038116811461085f578182fd5b600060208284031215610b8b578081fd5b8151801515811461085f578182fd5b60008060408385031215610bac578081fd5b50508035926020909101359150565b60008151808452815b81811015610be057602081850181015186830182015201610bc4565b81811115610bf15782602083870101525b50601f01601f19169290920160200192915050565b6001600160a01b0389811682526020820189905260408201889052861660608201526001600160e01b03198516608082015260a0810184905260c0810183905261010060e08201819052600090610c5f83820185610bbb565b9b9a5050505050505050505050565b60018060a01b03841681528260208201526060604082015260006103cc6060830184610bbb565b60008219821115610ca857610ca8610e2d565b500190565b600181815b80851115610ce8578160001904821115610cce57610cce610e2d565b80851615610cdb57918102915b93841c9390800290610cb2565b509250929050565b600061085f8383600082610d065750600161075e565b81610d135750600061075e565b8160018114610d295760028114610d3357610d4f565b600191505061075e565b60ff841115610d4457610d44610e2d565b50506001821b61075e565b5060208310610133831016604e8410600b8410161715610d72575081810a61075e565b610d7c8383610cad565b8060001904821115610d9057610d90610e2d565b029392505050565b6000816000190483118215151615610db257610db2610e2d565b500290565b60008083128015600160ff1b850184121615610dd557610dd5610e2d565b6001600160ff1b0384018313811615610df057610df0610e2d565b50500390565b600082821015610e0857610e08610e2d565b500390565b600082610e2857634e487b7160e01b81526012600452602481fd5b500690565b634e487b7160e01b600052601160045260246000fdfe68747470733a2f2f6d696e2d6170692e63727970746f636f6d706172652e636f6d2f646174612f70726963656d756c746966756c6c3f6673796d733d455448267473796d733d555344a26469706673582212200db9fd547b93ac6f5a009f98a0a0052eddff2d1b62761a0efc87e5cfadeb0c0664736f6c63430008040033",
  "linkReferences": {},
  "deployedLinkReferences": {}
}