{
  "_format": "hh-sol-artifact-1",
  "contractName": "HomeFiContract",
  "sourceName": "contracts/HomeFiContract.sol",
  "abi": [
    {
      "inputs": [
        {
          "internalType": "string",
          "name": "_title",
          "type": "string"
        },
        {
          "internalType": "string",
          "name": "_description",
          "type": "string"
        },
        {
          "internalType": "uint256",
          "name": "_limit",
          "type": "uint256"
        },
        {
          "internalType": "uint256",
          "name": "_percent",
          "type": "uint256"
        },
        {
          "internalType": "uint256",
          "name": "_price",
          "type": "uint256"
        }
      ],
      "stateMutability": "nonpayable",
      "type": "constructor"
    },
    {
      "anonymous": false,
      "inputs": [
        {
          "indexed": true,
          "internalType": "bytes32",
          "name": "id",
          "type": "bytes32"
        }
      ],
      "name": "ChainlinkCancelled",
      "type": "event"
    },
    {
      "anonymous": false,
      "inputs": [
        {
          "indexed": true,
          "internalType": "bytes32",
          "name": "id",
          "type": "bytes32"
        }
      ],
      "name": "ChainlinkFulfilled",
      "type": "event"
    },
    {
      "anonymous": false,
      "inputs": [
        {
          "indexed": true,
          "internalType": "bytes32",
          "name": "id",
          "type": "bytes32"
        }
      ],
      "name": "ChainlinkRequested",
      "type": "event"
    },
    {
      "inputs": [],
      "name": "estimate",
      "outputs": [
        {
          "internalType": "bytes32",
          "name": "",
          "type": "bytes32"
        }
      ],
      "stateMutability": "view",
      "type": "function"
    },
    {
      "inputs": [
        {
          "internalType": "bytes32",
          "name": "_requestId",
          "type": "bytes32"
        },
        {
          "internalType": "bytes32",
          "name": "_value",
          "type": "bytes32"
        }
      ],
      "name": "fulfill",
      "outputs": [],
      "stateMutability": "nonpayable",
      "type": "function"
    },
    {
      "inputs": [
        {
          "internalType": "bytes32",
          "name": "_requestId",
          "type": "bytes32"
        },
        {
          "internalType": "uint256",
          "name": "_data",
          "type": "uint256"
        }
      ],
      "name": "fulfillSmartZip",
      "outputs": [],
      "stateMutability": "nonpayable",
      "type": "function"
    },
    {
      "inputs": [],
      "name": "getLastData",
      "outputs": [
        {
          "internalType": "string",
          "name": "",
          "type": "string"
        }
      ],
      "stateMutability": "view",
      "type": "function"
    },
    {
      "inputs": [],
      "name": "getOwner",
      "outputs": [
        {
          "internalType": "address",
          "name": "",
          "type": "address"
        }
      ],
      "stateMutability": "view",
      "type": "function"
    },
    {
      "inputs": [],
      "name": "getPercent",
      "outputs": [
        {
          "internalType": "uint256",
          "name": "",
          "type": "uint256"
        }
      ],
      "stateMutability": "view",
      "type": "function"
    },
    {
      "inputs": [],
      "name": "getPrice",
      "outputs": [
        {
          "internalType": "uint256",
          "name": "",
          "type": "uint256"
        }
      ],
      "stateMutability": "view",
      "type": "function"
    },
    {
      "inputs": [],
      "name": "getTitle",
      "outputs": [
        {
          "internalType": "string",
          "name": "",
          "type": "string"
        }
      ],
      "stateMutability": "view",
      "type": "function"
    },
    {
      "inputs": [],
      "name": "lastData",
      "outputs": [
        {
          "internalType": "string",
          "name": "",
          "type": "string"
        }
      ],
      "stateMutability": "view",
      "type": "function"
    },
    {
      "inputs": [
        {
          "internalType": "address",
          "name": "",
          "type": "address"
        }
      ],
      "name": "participants",
      "outputs": [
        {
          "internalType": "uint256",
          "name": "",
          "type": "uint256"
        }
      ],
      "stateMutability": "view",
      "type": "function"
    },
    {
      "inputs": [],
      "name": "purchaseStake",
      "outputs": [],
      "stateMutability": "payable",
      "type": "function"
    },
    {
      "inputs": [
        {
          "internalType": "address",
          "name": "_oracle",
          "type": "address"
        },
        {
          "internalType": "bytes32",
          "name": "_jobId",
          "type": "bytes32"
        },
        {
          "internalType": "string",
          "name": "_propertyId",
          "type": "string"
        }
      ],
      "name": "requestDataSmartZip",
      "outputs": [
        {
          "internalType": "bytes32",
          "name": "requestId",
          "type": "bytes32"
        }
      ],
      "stateMutability": "nonpayable",
      "type": "function"
    },
    {
      "inputs": [
        {
          "internalType": "string",
          "name": "name",
          "type": "string"
        },
        {
          "internalType": "string",
          "name": "field",
          "type": "string"
        }
      ],
      "name": "requestPropertyData",
      "outputs": [
        {
          "internalType": "bytes32",
          "name": "requestId",
          "type": "bytes32"
        }
      ],
      "stateMutability": "nonpayable",
      "type": "function"
    },
    {
      "inputs": [],
      "name": "smartZipEstimate",
      "outputs": [
        {
          "internalType": "uint256",
          "name": "",
          "type": "uint256"
        }
      ],
      "stateMutability": "view",
      "type": "function"
    }
  ],
  "bytecode": "0x600160045560a060408190526000608081905262000020916006916200016d565b5060408051602081019182905260009081905262000041916007916200016d565b503480156200004f57600080fd5b50604051620016e8380380620016e88339810160408190526200007291620002c6565b600880546001600160a01b031916331790558451620000999060069060208801906200016d565b508351620000af9060079060208701906200016d565b50600992909255600b91909155600a5550506000601455600c80546001600160a01b031990811673c57b33452b4f7bb189bb5afae9cc4aba1f7a4fd8179091557f3662383865303430326535643431356562393436653532386238653063376261600d5567016345785d8a0000600e55600f805490911673ceda711fed764518654b53dcf35356da87996b841790557f393466396232303263376530346339383863653339363734663832353338396460105560016011556200039b565b8280546200017b9062000348565b90600052602060002090601f0160209004810192826200019f5760008555620001ea565b82601f10620001ba57805160ff1916838001178555620001ea565b82800160010185558215620001ea579182015b82811115620001ea578251825591602001919060010190620001cd565b50620001f8929150620001fc565b5090565b5b80821115620001f85760008155600101620001fd565b600082601f83011262000224578081fd5b81516001600160401b038082111562000241576200024162000385565b604051601f8301601f19908116603f011681019082821181831017156200026c576200026c62000385565b8160405283815260209250868385880101111562000288578485fd5b8491505b83821015620002ab57858201830151818301840152908201906200028c565b83821115620002bc57848385830101525b9695505050505050565b600080600080600060a08688031215620002de578081fd5b85516001600160401b0380821115620002f5578283fd5b6200030389838a0162000213565b9650602088015191508082111562000319578283fd5b50620003288882890162000213565b60408801516060890151608090990151979a919950979695509350505050565b600181811c908216806200035d57607f821691505b602082108114156200037f57634e487b7160e01b600052602260045260246000fd5b50919050565b634e487b7160e01b600052604160045260246000fd5b61133d80620003ab6000396000f3fe6080604052600436106100dc5760003560e01c80633592d0161161007f578063b0ac4c8c11610059578063b0ac4c8c1461020f578063bd14259f14610224578063d3652fd314610244578063ff3c1a8f1461026457600080fd5b80633592d016146101bc578063893d20e8146101d257806398d5fdca146101fa57600080fd5b806316d84f7e116100bb57806316d84f7e1461016957806318c0e04f14610189578063229a78c0146101915780632a6dd8c9146101a757600080fd5b80626e75ec146100e1578063042f2b651461010c57806309e69ede1461012e575b600080fd5b3480156100ed57600080fd5b506100f6610279565b60405161010391906110c6565b60405180910390f35b34801561011857600080fd5b5061012c610127366004610f3c565b610307565b005b34801561013a57600080fd5b5061015b610149366004610ead565b60156020526000908152604090205481565b604051908152602001610103565b34801561017557600080fd5b5061012c610184366004610f3c565b6103bc565b61012c61043e565b34801561019d57600080fd5b5061015b60175481565b3480156101b357600080fd5b50600a5461015b565b3480156101c857600080fd5b5061015b60125481565b3480156101de57600080fd5b506008546040516001600160a01b039091168152602001610103565b34801561020657600080fd5b50600b5461015b565b34801561021b57600080fd5b506100f6610530565b34801561023057600080fd5b5061015b61023f366004610f5d565b6105c2565b34801561025057600080fd5b5061015b61025f366004610ec7565b61066c565b34801561027057600080fd5b506100f66106c8565b6013805461028690611286565b80601f01602080910402602001604051908101604052809291908181526020018280546102b290611286565b80156102ff5780601f106102d4576101008083540402835291602001916102ff565b820191906000526020600020905b8154815290600101906020018083116102e257829003601f168201915b505050505081565b60008281526005602052604090205482906001600160a01b031633146103485760405162461bcd60e51b815260040161033f906110d9565b60405180910390fd5b60008181526005602052604080822080546001600160a01b03191690555182917f7cc135e0cebb02c3480ae5d74d377283180a2601f8f644edf7987b009316c63a91a260408051602080820185905282518083038201815291830190925280516103b6926013920190610d36565b50505050565b60008281526005602052604090205482906001600160a01b031633146103f45760405162461bcd60e51b815260040161033f906110d9565b60008181526005602052604080822080546001600160a01b03191690555182917f7cc135e0cebb02c3480ae5d74d377283180a2601f8f644edf7987b009316c63a91a25060175550565b600b54341461049f5760405162461bcd60e51b815260206004820152602760248201527f506c656173652073656e6420636f727265637420616d6f756e7420746f20636f604482015266373a3930b1ba1760c91b606482015260840161033f565b600954601454106105035760405162461bcd60e51b815260206004820152602860248201527f5468697320636f6e7472616374206973206f766572737562736372696265642060448201526737b910333ab6361760c11b606482015260840161033f565b6001601460008282546105169190611121565b909155505033600090815260156020526040902060019055565b60606013805461053f90611286565b80601f016020809104026020016040519081016040528092919081815260200182805461056b90611286565b80156105b85780601f1061058d576101008083540402835291602001916105b8565b820191906000526020600020905b81548152906001019060200180831161059b57829003601f168201915b5050505050905090565b6000806105d9600d543063042f2b6560e01b6106d7565b90506000846040516020016105ee9190610fea565b60408051601f19818403018152828201909152600382526219d95d60ea1b6020830152915061061f908390836106f3565b6040805180820190915260048152630e0c2e8d60e31b6020820152610646908390866106f3565b600c54600e54610661916001600160a01b0316908490610716565b925050505b92915050565b6000806106818430630b6c27bf60e11b6106d7565b60408051808201909152600b81526a1c1c9bdc195c9d1e57da5960aa1b60208201529091506106b2908290856106f3565b6106bf8582601154610716565b95945050505050565b60606006805461053f90611286565b6106df610dba565b6106e7610dba565b6106bf81868686610735565b60808301516107029083610772565b60808301516107119082610772565b505050565b600061072d84848460016320214ca360e11b610789565b949350505050565b61073d610dba565b61074d8560800151610100610995565b50509183526001600160a01b031660208301526001600160e01b031916604082015290565b61077f82600383516109fa565b6107118282610ac8565b6004546040516bffffffffffffffffffffffff193060601b166020820152603481019190915260009060540160408051808303601f19018152918152815160209283012060045460608901526000818152600590935281832080546001600160a01b0319166001600160a01b038b16179055905190925082917fb5e6e01e79f91267dc17b4e6314d5d4d03593d2ceee0fbb452b750bd70ea5af991a2600082600080886000015189602001518a604001518b606001518a8d6080015160000151604051602401610860989796959493929190611037565b60408051601f198184030181529181526020820180516001600160e01b03166001600160e01b0319909416939093179092526002549151630200057560e51b81529092506001600160a01b0390911690634000aea0906108c8908a908990869060040161109f565b602060405180830381600087803b1580156108e257600080fd5b505af11580156108f6573d6000803e3d6000fd5b505050506040513d601f19601f8201168201806040525081019061091a9190610f1c565b6109725760405162461bcd60e51b815260206004820152602360248201527f756e61626c6520746f207472616e73666572416e6443616c6c20746f206f7261604482015262636c6560e81b606482015260840161033f565b6001600460008282546109859190611121565b9091555091979650505050505050565b6040805180820190915260608152600060208201526109b56020836112bb565b156109dd576109c56020836112bb565b6109d0906020611243565b6109da9083611121565b91505b506020828101829052604080518085526000815290920101905290565b60178111610a15576103b68360e0600585901b168317610af6565b60ff8111610a3f57610a32836018611fe0600586901b1617610af6565b506103b683826001610b1b565b61ffff8111610a6a57610a5d836019611fe0600586901b1617610af6565b506103b683826002610b1b565b63ffffffff8111610a9757610a8a83601a611fe0600586901b1617610af6565b506103b683826004610b1b565b67ffffffffffffffff811161071157610abb83601b611fe0600586901b1617610af6565b506103b683826008610b1b565b604080518082019091526060815260006020820152610aef83846000015151848551610b41565b9392505050565b604080518082019091526060815260006020820152610aef8384600001515184610c2b565b60408051808201909152606081526000602082015261072d848560000151518585610c87565b6040805180820190915260608152600060208201528251821115610b6457600080fd5b6020850151610b738386611121565b1115610ba657610ba685610b9687602001518786610b919190611121565b610d08565b610ba1906002611224565b610d1f565b600080865180518760208301019350808887011115610bc55787860182525b505050602084015b60208410610c055780518252610be4602083611121565b9150610bf1602082611121565b9050610bfe602085611243565b9350610bcd565b51815160001960208690036101000a019081169019919091161790525083949350505050565b60408051808201909152606081526000602082015283602001518310610c6057610c608485602001516002610ba19190611224565b835180516020858301018481535080851415610c7d576001810182525b5093949350505050565b6040805180820190915260608152600060208201526020850151610cab8584611121565b1115610cbf57610cbf85610b968685611121565b60006001610ccf8461010061117c565b610cd99190611243565b9050855183868201018583198251161781525080518487011115610cfd5783860181525b509495945050505050565b600081831115610d19575081610666565b50919050565b8151610d2b8383610995565b506103b68382610ac8565b828054610d4290611286565b90600052602060002090601f016020900481019282610d645760008555610daa565b82601f10610d7d57805160ff1916838001178555610daa565b82800160010185558215610daa579182015b82811115610daa578251825591602001919060010190610d8f565b50610db6929150610df5565b5090565b6040805160a0810182526000808252602080830182905282840182905260608084018390528451808601909552845283015290608082015290565b5b80821115610db65760008155600101610df6565b80356001600160a01b0381168114610e2157600080fd5b919050565b600082601f830112610e36578081fd5b813567ffffffffffffffff80821115610e5157610e516112f1565b604051601f8301601f19908116603f01168101908282118183101715610e7957610e796112f1565b81604052838152866020858801011115610e91578485fd5b8360208701602083013792830160200193909352509392505050565b600060208284031215610ebe578081fd5b610aef82610e0a565b600080600060608486031215610edb578182fd5b610ee484610e0a565b925060208401359150604084013567ffffffffffffffff811115610f06578182fd5b610f1286828701610e26565b9150509250925092565b600060208284031215610f2d578081fd5b81518015158114610aef578182fd5b60008060408385031215610f4e578182fd5b50508035926020909101359150565b60008060408385031215610f6f578182fd5b823567ffffffffffffffff80821115610f86578384fd5b610f9286838701610e26565b93506020850135915080821115610fa7578283fd5b50610fb485828601610e26565b9150509250929050565b60008151808452610fd681602086016020860161125a565b601f01601f19169290920160200192915050565b7368747470733a2f2f67656f636f64652e78797a2f60601b81526000825161101981601485016020870161125a565b663f6a736f6e3d3160c81b6014939091019283015250601b01919050565b6001600160a01b0389811682526020820189905260408201889052861660608201526001600160e01b03198516608082015260a0810184905260c0810183905261010060e0820181905260009061109083820185610fbe565b9b9a5050505050505050505050565b60018060a01b03841681528260208201526060604082015260006106bf6060830184610fbe565b602081526000610aef6020830184610fbe565b60208082526028908201527f536f75726365206d75737420626520746865206f7261636c65206f6620746865604082015267081c995c5d595cdd60c21b606082015260800190565b60008219821115611134576111346112db565b500190565b600181815b8085111561117457816000190482111561115a5761115a6112db565b8085161561116757918102915b93841c939080029061113e565b509250929050565b6000610aef838360008261119257506001610666565b8161119f57506000610666565b81600181146111b557600281146111bf576111db565b6001915050610666565b60ff8411156111d0576111d06112db565b50506001821b610666565b5060208310610133831016604e8410600b84101617156111fe575081810a610666565b6112088383611139565b806000190482111561121c5761121c6112db565b029392505050565b600081600019048311821515161561123e5761123e6112db565b500290565b600082821015611255576112556112db565b500390565b60005b8381101561127557818101518382015260200161125d565b838111156103b65750506000910152565b600181811c9082168061129a57607f821691505b60208210811415610d1957634e487b7160e01b600052602260045260246000fd5b6000826112d657634e487b7160e01b81526012600452602481fd5b500690565b634e487b7160e01b600052601160045260246000fd5b634e487b7160e01b600052604160045260246000fdfea2646970667358221220db12c6e470bd3efa3aa5968f5129576f31c29c55a17733aa379bf5ed9928c70f64736f6c63430008040033",
  "linkReferences": {},
  "deployedLinkReferences": {}
}