{
  "_format": "hh-sol-artifact-1",
  "contractName": "HomeFiContract",
  "sourceName": "contracts/HomeFiContract.sol",
  "abi": [
    {
      "inputs": [
        {
          "internalType": "string",
          "name": "_title",
          "type": "string"
        },
        {
          "internalType": "string",
          "name": "_description",
          "type": "string"
        },
        {
          "internalType": "uint256",
          "name": "_limit",
          "type": "uint256"
        },
        {
          "internalType": "uint256",
          "name": "_percent",
          "type": "uint256"
        },
        {
          "internalType": "uint256",
          "name": "_price",
          "type": "uint256"
        }
      ],
      "stateMutability": "nonpayable",
      "type": "constructor"
    },
    {
      "anonymous": false,
      "inputs": [
        {
          "indexed": true,
          "internalType": "bytes32",
          "name": "id",
          "type": "bytes32"
        }
      ],
      "name": "ChainlinkCancelled",
      "type": "event"
    },
    {
      "anonymous": false,
      "inputs": [
        {
          "indexed": true,
          "internalType": "bytes32",
          "name": "id",
          "type": "bytes32"
        }
      ],
      "name": "ChainlinkFulfilled",
      "type": "event"
    },
    {
      "anonymous": false,
      "inputs": [
        {
          "indexed": true,
          "internalType": "bytes32",
          "name": "id",
          "type": "bytes32"
        }
      ],
      "name": "ChainlinkRequested",
      "type": "event"
    },
    {
      "inputs": [],
      "name": "estimate",
      "outputs": [
        {
          "internalType": "bytes32",
          "name": "",
          "type": "bytes32"
        }
      ],
      "stateMutability": "view",
      "type": "function"
    },
    {
      "inputs": [
        {
          "internalType": "bytes32",
          "name": "_requestId",
          "type": "bytes32"
        },
        {
          "internalType": "bytes32",
          "name": "_value",
          "type": "bytes32"
        }
      ],
      "name": "fulfill",
      "outputs": [],
      "stateMutability": "nonpayable",
      "type": "function"
    },
    {
      "inputs": [],
      "name": "getLastData",
      "outputs": [
        {
          "internalType": "string",
          "name": "",
          "type": "string"
        }
      ],
      "stateMutability": "view",
      "type": "function"
    },
    {
      "inputs": [],
      "name": "getOwner",
      "outputs": [
        {
          "internalType": "address",
          "name": "",
          "type": "address"
        }
      ],
      "stateMutability": "view",
      "type": "function"
    },
    {
      "inputs": [],
      "name": "getPercent",
      "outputs": [
        {
          "internalType": "uint256",
          "name": "",
          "type": "uint256"
        }
      ],
      "stateMutability": "view",
      "type": "function"
    },
    {
      "inputs": [],
      "name": "getPrice",
      "outputs": [
        {
          "internalType": "uint256",
          "name": "",
          "type": "uint256"
        }
      ],
      "stateMutability": "view",
      "type": "function"
    },
    {
      "inputs": [],
      "name": "getTitle",
      "outputs": [
        {
          "internalType": "string",
          "name": "",
          "type": "string"
        }
      ],
      "stateMutability": "view",
      "type": "function"
    },
    {
      "inputs": [],
      "name": "lastData",
      "outputs": [
        {
          "internalType": "string",
          "name": "",
          "type": "string"
        }
      ],
      "stateMutability": "view",
      "type": "function"
    },
    {
      "inputs": [
        {
          "internalType": "address",
          "name": "",
          "type": "address"
        }
      ],
      "name": "participants",
      "outputs": [
        {
          "internalType": "uint256",
          "name": "",
          "type": "uint256"
        }
      ],
      "stateMutability": "view",
      "type": "function"
    },
    {
      "inputs": [],
      "name": "purchaseStake",
      "outputs": [],
      "stateMutability": "payable",
      "type": "function"
    },
    {
      "inputs": [
        {
          "internalType": "string",
          "name": "name",
          "type": "string"
        },
        {
          "internalType": "string",
          "name": "field",
          "type": "string"
        }
      ],
      "name": "requestGeocode",
      "outputs": [
        {
          "internalType": "bytes32",
          "name": "requestId",
          "type": "bytes32"
        }
      ],
      "stateMutability": "nonpayable",
      "type": "function"
    }
  ],
  "bytecode": "0x600160045560a0604081905260006080819052620000209160069162000122565b50604080516020810191829052600090819052620000419160079162000122565b503480156200004f57600080fd5b50604051620014c2380380620014c283398101604081905262000072916200027b565b600880546001600160a01b0319163317905584516200009990600690602088019062000122565b508351620000af90600790602087019062000122565b50600992909255600b91909155600a5550506000601155600c80546001600160a01b03191673c57b33452b4f7bb189bb5afae9cc4aba1f7a4fd81790557f3662383865303430326535643431356562393436653532386238653063376261600d5567016345785d8a0000600e5562000350565b8280546200013090620002fd565b90600052602060002090601f0160209004810192826200015457600085556200019f565b82601f106200016f57805160ff19168380011785556200019f565b828001600101855582156200019f579182015b828111156200019f57825182559160200191906001019062000182565b50620001ad929150620001b1565b5090565b5b80821115620001ad5760008155600101620001b2565b600082601f830112620001d9578081fd5b81516001600160401b0380821115620001f657620001f66200033a565b604051601f8301601f19908116603f011681019082821181831017156200022157620002216200033a565b816040528381526020925086838588010111156200023d578485fd5b8491505b8382101562000260578582018301518183018401529082019062000241565b838211156200027157848385830101525b9695505050505050565b600080600080600060a0868803121562000293578081fd5b85516001600160401b0380821115620002aa578283fd5b620002b889838a01620001c8565b96506020880151915080821115620002ce578283fd5b50620002dd88828901620001c8565b60408801516060890151608090990151979a919950979695509350505050565b600181811c908216806200031257607f821691505b602082108114156200033457634e487b7160e01b600052602260045260246000fd5b50919050565b634e487b7160e01b600052604160045260246000fd5b61116280620003606000396000f3fe60806040526004361061009b5760003560e01c80633592d016116100645780633592d01614610145578063893d20e81461015b57806398d5fdca14610183578063b0ac4c8c14610198578063d9cf2e44146101ad578063ff3c1a8f146101cd57600080fd5b80626e75ec146100a0578063042f2b65146100cb57806309e69ede146100ed57806318c0e04f146101285780632a6dd8c914610130575b600080fd5b3480156100ac57600080fd5b506100b56101e2565b6040516100c29190610f33565b60405180910390f35b3480156100d757600080fd5b506100eb6100e6366004610da9565b610270565b005b3480156100f957600080fd5b5061011a610108366004610d62565b60126020526000908152604090205481565b6040519081526020016100c2565b6100eb610362565b34801561013c57600080fd5b50600a5461011a565b34801561015157600080fd5b5061011a600f5481565b34801561016757600080fd5b506008546040516001600160a01b0390911681526020016100c2565b34801561018f57600080fd5b50600b5461011a565b3480156101a457600080fd5b506100b5610454565b3480156101b957600080fd5b5061011a6101c8366004610dca565b6104e6565b3480156101d957600080fd5b506100b5610590565b601080546101ef906110ab565b80601f016020809104026020016040519081016040528092919081815260200182805461021b906110ab565b80156102685780601f1061023d57610100808354040283529160200191610268565b820191906000526020600020905b81548152906001019060200180831161024b57829003601f168201915b505050505081565b60008281526005602052604090205482906001600160a01b031633146102ee5760405162461bcd60e51b815260206004820152602860248201527f536f75726365206d75737420626520746865206f7261636c65206f6620746865604482015267081c995c5d595cdd60c21b60648201526084015b60405180910390fd5b60008181526005602052604080822080546001600160a01b03191690555182917f7cc135e0cebb02c3480ae5d74d377283180a2601f8f644edf7987b009316c63a91a2604080516020808201859052825180830382018152918301909252805161035c926010920190610c07565b50505050565b600b5434146103c35760405162461bcd60e51b815260206004820152602760248201527f506c656173652073656e6420636f727265637420616d6f756e7420746f20636f604482015266373a3930b1ba1760c91b60648201526084016102e5565b600954601154106104275760405162461bcd60e51b815260206004820152602860248201527f5468697320636f6e7472616374206973206f766572737562736372696265642060448201526737b910333ab6361760c11b60648201526084016102e5565b60016011600082825461043a9190610f46565b909155505033600090815260126020526040902060019055565b606060108054610463906110ab565b80601f016020809104026020016040519081016040528092919081815260200182805461048f906110ab565b80156104dc5780601f106104b1576101008083540402835291602001916104dc565b820191906000526020600020905b8154815290600101906020018083116104bf57829003601f168201915b5050505050905090565b6000806104fd600d543063042f2b6560e01b61059f565b90506000846040516020016105129190610e57565b60408051601f19818403018152828201909152600382526219d95d60ea1b60208301529150610543908390836105c4565b6040805180820190915260048152630e0c2e8d60e31b602082015261056a908390866105c4565b600c54600e54610585916001600160a01b03169084906105e7565b925050505b92915050565b606060068054610463906110ab565b6105a7610c8b565b6105af610c8b565b6105bb81868686610606565b95945050505050565b60808301516105d39083610643565b60808301516105e29082610643565b505050565b60006105fe84848460016320214ca360e11b61065a565b949350505050565b61060e610c8b565b61061e8560800151610100610866565b50509183526001600160a01b031660208301526001600160e01b031916604082015290565b61065082600383516108cb565b6105e28282610999565b6004546040516bffffffffffffffffffffffff193060601b166020820152603481019190915260009060540160408051808303601f19018152918152815160209283012060045460608901526000818152600590935281832080546001600160a01b0319166001600160a01b038b16179055905190925082917fb5e6e01e79f91267dc17b4e6314d5d4d03593d2ceee0fbb452b750bd70ea5af991a2600082600080886000015189602001518a604001518b606001518a8d6080015160000151604051602401610731989796959493929190610ea4565b60408051601f198184030181529181526020820180516001600160e01b03166001600160e01b0319909416939093179092526002549151630200057560e51b81529092506001600160a01b0390911690634000aea090610799908a9089908690600401610f0c565b602060405180830381600087803b1580156107b357600080fd5b505af11580156107c7573d6000803e3d6000fd5b505050506040513d601f19601f820116820180604052508101906107eb9190610d89565b6108435760405162461bcd60e51b815260206004820152602360248201527f756e61626c6520746f207472616e73666572416e6443616c6c20746f206f7261604482015262636c6560e81b60648201526084016102e5565b6001600460008282546108569190610f46565b9091555091979650505050505050565b6040805180820190915260608152600060208201526108866020836110e0565b156108ae576108966020836110e0565b6108a1906020611068565b6108ab9083610f46565b91505b506020828101829052604080518085526000815290920101905290565b601781116108e65761035c8360e0600585901b1683176109c7565b60ff811161091057610903836018611fe0600586901b16176109c7565b5061035c838260016109ec565b61ffff811161093b5761092e836019611fe0600586901b16176109c7565b5061035c838260026109ec565b63ffffffff81116109685761095b83601a611fe0600586901b16176109c7565b5061035c838260046109ec565b67ffffffffffffffff81116105e25761098c83601b611fe0600586901b16176109c7565b5061035c838260086109ec565b6040805180820190915260608152600060208201526109c083846000015151848551610a12565b9392505050565b6040805180820190915260608152600060208201526109c08384600001515184610afc565b6040805180820190915260608152600060208201526105fe848560000151518585610b58565b6040805180820190915260608152600060208201528251821115610a3557600080fd5b6020850151610a448386610f46565b1115610a7757610a7785610a6787602001518786610a629190610f46565b610bd9565b610a72906002611049565b610bf0565b600080865180518760208301019350808887011115610a965787860182525b505050602084015b60208410610ad65780518252610ab5602083610f46565b9150610ac2602082610f46565b9050610acf602085611068565b9350610a9e565b51815160001960208690036101000a019081169019919091161790525083949350505050565b60408051808201909152606081526000602082015283602001518310610b3157610b318485602001516002610a729190611049565b835180516020858301018481535080851415610b4e576001810182525b5093949350505050565b6040805180820190915260608152600060208201526020850151610b7c8584610f46565b1115610b9057610b9085610a678685610f46565b60006001610ba084610100610fa1565b610baa9190611068565b9050855183868201018583198251161781525080518487011115610bce5783860181525b509495945050505050565b600081831115610bea57508161058a565b50919050565b8151610bfc8383610866565b5061035c8382610999565b828054610c13906110ab565b90600052602060002090601f016020900481019282610c355760008555610c7b565b82601f10610c4e57805160ff1916838001178555610c7b565b82800160010185558215610c7b579182015b82811115610c7b578251825591602001919060010190610c60565b50610c87929150610cc6565b5090565b6040805160a0810182526000808252602080830182905282840182905260608084018390528451808601909552845283015290608082015290565b5b80821115610c875760008155600101610cc7565b600082601f830112610ceb578081fd5b813567ffffffffffffffff80821115610d0657610d06611116565b604051601f8301601f19908116603f01168101908282118183101715610d2e57610d2e611116565b81604052838152866020858801011115610d46578485fd5b8360208701602083013792830160200193909352509392505050565b600060208284031215610d73578081fd5b81356001600160a01b03811681146109c0578182fd5b600060208284031215610d9a578081fd5b815180151581146109c0578182fd5b60008060408385031215610dbb578081fd5b50508035926020909101359150565b60008060408385031215610ddc578182fd5b823567ffffffffffffffff80821115610df3578384fd5b610dff86838701610cdb565b93506020850135915080821115610e14578283fd5b50610e2185828601610cdb565b9150509250929050565b60008151808452610e4381602086016020860161107f565b601f01601f19169290920160200192915050565b7368747470733a2f2f67656f636f64652e78797a2f60601b815260008251610e8681601485016020870161107f565b663f6a736f6e3d3160c81b6014939091019283015250601b01919050565b6001600160a01b0389811682526020820189905260408201889052861660608201526001600160e01b03198516608082015260a0810184905260c0810183905261010060e08201819052600090610efd83820185610e2b565b9b9a5050505050505050505050565b60018060a01b03841681528260208201526060604082015260006105bb6060830184610e2b565b6020815260006109c06020830184610e2b565b60008219821115610f5957610f59611100565b500190565b600181815b80851115610f99578160001904821115610f7f57610f7f611100565b80851615610f8c57918102915b93841c9390800290610f63565b509250929050565b60006109c08383600082610fb75750600161058a565b81610fc45750600061058a565b8160018114610fda5760028114610fe457611000565b600191505061058a565b60ff841115610ff557610ff5611100565b50506001821b61058a565b5060208310610133831016604e8410600b8410161715611023575081810a61058a565b61102d8383610f5e565b806000190482111561104157611041611100565b029392505050565b600081600019048311821515161561106357611063611100565b500290565b60008282101561107a5761107a611100565b500390565b60005b8381101561109a578181015183820152602001611082565b8381111561035c5750506000910152565b600181811c908216806110bf57607f821691505b60208210811415610bea57634e487b7160e01b600052602260045260246000fd5b6000826110fb57634e487b7160e01b81526012600452602481fd5b500690565b634e487b7160e01b600052601160045260246000fd5b634e487b7160e01b600052604160045260246000fdfea26469706673582212206143ebc6990aff46b124861b0ffd93a9b9f92f71d80c1ccc4414acf179b4256664736f6c63430008040033",
  "linkReferences": {},
  "deployedLinkReferences": {}
}